:020000040000fa
:080000000002040000000000f2
:020000040000fa
:10040000cfba21000ebf22005a3b020000000000bc
:100410000080200001402200d3ea2d00810040002e
:100420000f00e10004003100031878000100e10032
:10043000fbff390008003700e31d2a008087eb002e
:10044000031878000e00e100fdff3a00d3ea2d000a
:100450000100e100f2ff3900cfba21000e0188004f
:10046000000000000c00070040ce22000100200028
:1004700011000700000020000000e0000200320030
:100480000000020000000000a43e02000000000086
:100490000040da000000fe004440a90020282100ae
:1004a0000000e0000300320000002000a0018800ee
:1004b0004440a800000006009101880080007800f8
:1004c0000000eb0015003700e280400032a0b400cd
:1004d0009101ba00e280400032a0b4009102ba005b
:1004e000e280400032a0b4000002eb00472bde00a7
:1004f000f507b200602ce10004003a000059eb005f
:100500008301e900fdff3e00040037006128e1009f
:10051000010032000082eb00040007001101ba0064
:100520000200e000e8ff3a00000006003159ba007e
:100530008301e9000c0032002159ba008301e9006f
:10054000080032000400e00003003a00e2804000ae
:1005500032a0b400f5ff370011d9ba008301e900d9
:10056000faff3a008100e800e180400032a0b400c8
:100570000000060000000000000000000000000075
:10058000000000000000000000000000000000006b
:10059000000000000000000000000000000000005b
:1005a000000000000000000000000000000000004b
:1005b000000000000000000000000000000000003b
:1005c000000000000000000000000000000000002b
:1005d000000000000000000000000000000000001b
:1005e000000000000000000000000000000000000b
:1005f0000000000000000000000000000a00fa00f7
:1006000080017800e20f500028003e0050dd80009d
:10061000e10f500008003200802320000000e000bd
:10062000050032000423200025232000462320005b
:1006300080017800040037000422200025222000d9
:100640004622200083222000144090000004e00095
:10065000040035008009eb00144090000074a000f5
:1006600010429800154090000028a30003003a00b3
:10067000154090000024a000904298008001eb00fb
:1006800007003700154090000008a300fdff32006e
:1006900063c078000000fb00000b78008301e800d5
:1006a000828f5100f7ff3a00080037003000200029
:1006b000b0bf9f00c3bf9f00d1bf9f00e2bf9f009c
:1006c0006a80570000c0da006fb997000200780016
:1006d0000080fa00000006006022b8000602200038
:1006e0000000d0008180d2000482d2008582d20036
:1006f0000000a0000202520083825a000300310071
:100700000202420083824a000000a1000603e900c1
:10071000f3ff3a0000000600881f7800000478000c
:100720005001be004000be0004004000858048002b
:100730000601490087814900009cbe000294be006a
:100740000400e1000588e1000690e1000798e1005f
:1007500002003100680044001008e8004f047800ef
:1007600000000600f4874700889fbe008a9fbe00f5
:100770008c9fbe008e1f78000205be000004be00e4
:10078000d4b79f00e5b79f00f6b79f0087bf9f00d3
:100790000000eb00c0b79f00b0b79f00a0b79f005c
:1007a00090b79f0080b79f000d042000bfb0970056
:1007b0004fb09700000140000000e0000f003d0036
:1007c0004f08de0000007100c0b79f009e000700c8
:1007d00001003d0012002000a100070001003d00c3
:1007e00012002000a6000700b1000700b6000700b5
:1007f0000f004000c8ff0700220037004f08de004e
:1008000000067100ccb79f008f00070001003d007b
:10081000120020009200070001003d00120020009d
:1008200097000700a20007000fb297009fb2970041
:100830002fb39700bfb39700a90007000000520034
:1008400081805a0002015b0083815b0080b79f00ba
:1008500091b79f00a2b79f00b3b79f000007eb00be
:100860009f0007000020e10001a8e10002b0e100c4
:1008700003b8e100010031001e0020000e00560008
:10088000c0b79f004fb297000400e000070035009a
:1008900010002000010020006011b8000804700062
:1008a000898470000a0571008b8571008d06e9004e
:1008b000beff3a000400e00003003d008200070094
:1008c0000f00400094ff07004fa897000000e000d1
:1008d00004003a000fb497009fb497002fb597001b
:1008e000bfb59700940007004f0778004f06be0081
:1008f0004f05be004f04be004f01b10000000600ce
:10090000881f780018002000881f780095ff0700d6
:100910008f87e9004f04780000000600801feb007d
:1009200090ff07008f87e90000000600889fbe0047
:100930008a9fbe008c1f78006e00070007003d00f4
:1009400073000700e00f5b00e08f5b0007003d00d5
:10095000320007000006eb000400370034000700f7
:1009600002003d002a0007001c0020007200070062
:10097000e3ff07000203be000002be000c00e0001f
:1009800001003200220007000400be000601be0084
:100990004f0678004f05be004f04be000000060061
:1009a000889fbe008a9fbe008c1f78005100070000
:1009b00005003d0056000700e00f5b00e08f5b0084
:1009c00006003d00040037001900070003003d0049
:1009d0006000b8006011b800100007005600070062
:1009e000ceff07000203be000002be000c00e000c4
:1009f00001003200060007000400be000601be0030
:100a00004f0678004f05be004f04be0000000600f0
:100a10006000b8006011b800000037000402500008
:100a2000858258000603590087835900000006009c
:100a30000006eb00e00f5200e08f5a00e00f5b0071
:100a4000e08f5b00000006000180400090b79f002f
:100a50000001eb008fb097000100e00000000600ed
:100a60000200700090b79f000180400080b79f0097
:100a70000001eb00ffa897000100e0000000060065
:100a80000200700080b79f00018040006faa9700ad
:100a9000cf20de0001007000f0af9f000402420092
:100aa000250007004f18de0000027200000006005b
:100ab000e4af9f000804440089844c000a054d00ff
:100ac0008b854d00000006003fb29700cfb2970023
:100ad0005fb39700efb3970000fe2f000000060001
:100ae0003fb09700cfb097005fb19700efb197008c
:100af000000006000205be000004be00e00f50002a
:100b0000e08f5800e00f5900e08f59000000060008
:100b10006000b8006011b8000804500089845800d3
:100b20000a0559008b8559001c002000e00f520077
:100b3000e08f5a00000006000800be000a01be0057
:100b400000000600881f78008a1f78004400f80023
:100b5000080f200028028800000490001005900073
:100b6000a000900030019000c00190000300ca0076
:100b70000280ca000030cb001a00cd004604c3003a
:100b80000100ca004604c0001e04c0000605c000e3
:100b90000100cd0021009800050d7800eaba970009
:100ba000052578004400f9004f0578004f047800cf
:100bb00000000600801f78004000b0000008eb0035
:100bc0004f007800801f7800100090000018eb00a4
:100bd0000018eb000008eb004f0078000000060052
:100be0004400f800020f20002202880091007800e3
:100bf0003000ca003080ca000000cb002080ca004c
:100c00000000cb003100cd004000ca000000cb0046
:100c10000000cb000010cb003100cd001180cc00d3
:100c20004400f90000000600800078003004e00075
:100c3000feff3a00010050000000e900000006003d
:100c40008001eb000200370061f079008301e800c9
:100c5000828f5100fcff3a00000006000c00fa00f1
:100c6000889fbe0000047800cfb09700f0ff2700f7
:100c7000d0bf9f008004eb0099bf9f0088bf9f00fa
:100c8000a8bf9f00200c2000b0bf9f0078815700b4
:100c900070805700080007000fb8970009487800d7
:100ca0000fb8970008045000080078004f04be00f9
:100cb0000080fa0000000600fa874700889fbe0007
:100cc0008a9fbe008c9fbe008e1f7800f0b79f00e9
:100cd0000107780082bf9f000000eb00c0b79f00b3
:100ce000130237008046eb0050c2b30080cf5000a3
:100cf000090032000100fb00ffb097001702070057
:100d0000e10f40000a023200cfb097008100e800f6
:100d1000c1b79f00060237009e407800d0c2b300e2
:100d200080cf50000c00320007003c006d405000a6
:100d300080cf50000a0032006b40400080cf50004e
:100d40000e003a000800370000c3b30080cf500007
:100d50000a003a00060037000d34a00005003700f5
:100d60000d04a000030037000d14a000010037009f
:100d70000d24a0000e07e800e7ff37000d18a300c0
:100d8000010032000d04a1000d38a3000100320063
:100d90000d24a1000100fb0002fd2f000200400015
:100da000e90f50000e003e000002eb00d4b79f0098
:100db000820178005fb397006a30b9001e01fb0022
:100dc0000001410003014100d2b79f005e00fb001b
:100dd00003004000e90f50000b003e00f5ff370014
:100de0000006eb00dcb79f00a0c2b30080cf50002c
:100df00005003a000fb89700c000780080bf9f0040
:100e0000d1b79f000e07e8000001eb0092b79f00ea
:100e1000e0c2b3009e4f100017003a008e00e800b9
:100e200064405000914f100002003200010778002a
:100e30000c0037000fba97004403780084bf9f006e
:100e400096b79f000e87e8000b0037001fb697008b
:100e50006a60b900000041000300400090b79f00a5
:100e60000e07e8001e01fb0003fd2f0003004100f8
:100e7000e90f5000f5ff3600be407800a1df9f006b
:100e800030c7b30080cf50001a00320009003c0088
:100e90007040500080cf5000640032006940400034
:100ea00080cf50000a0032000104e000a4013200ab
:100eb0007d00370050c7b30080cf50007e00320065
:100ec0006340400080cf500077003a0006003700b2
:100ed0000040eb000d48a30001003a0000c1b30040
:100ee00080c67600e4ff37008d4278000574a000cc
:100ef000730037008fb897004100780081bf9f00d2
:100f0000000478000000e00001003a00c8b82100a9
:100f10008004eb00010037008104e80089007800bc
:100f2000088044001004e000fbff3a001fb1970066
:100f30000200e00003003200890f5100010031007f
:100f4000820478000002eb0084b79f005fb3970033
:100f5000890f5300020036000900530080b79f003c
:100f60004368de00e10660001b003a000d067800d1
:100f700009003700ffb0970000022000770107004a
:100f8000e10f4000030032004fb097000000e8007e
:100f9000c0b79f000c06e8008fb09700810f560085
:100fa000f4ff3a000081eb0082b79f000a0037008f
:100fb000880078003100fb0001047800ffb0970042
:100fc00066010700e10f4000030032004fb29700b6
:100fd0000402e800c4b79f000900e900800478001b
:100fe000e10f4000f2ff3a000006eb000d00e000c8
:100ff0000a003a004e013700ffb0970000022000bf
:1010000056010700e10f4000030032004fb3970084
:101010000603e800c6b79f000c06e8000fb0970073
:10102000800f5600f4ff3a00410137008fb8970057
:101030004100780081bf9f00cf80de000101780071
:10104000820178000205be000004be000203be005b
:101050000002be004822de00482edd0004027600b9
:10106000a4df9f000d48a3000a0032000404e00042
:1010700008003200e14f420006003200b1fd2f00af
:10108000018047000448780018409800290020009b
:1010900002003700b0df9f0019002000b2fd2f00d2
:1010a00002844700a1ff3700a4fd2f0004844700fd
:1010b000190020009dff370000ccb30080c27600ed
:1010c0000583fb00e6b79f000648a3000700320037
:1010d0000fbe97004c00be008cbf9f006011b8008f
:1010e0000205be000004be00070037008fb897005d
:1010f0004100780081bf9f000004780009002000b3
:101100000a0020000b0020001fb197000200e00041
:1011100007003a00e00f5400e08f5c00e00f5d0034
:10112000e08f5d0002003a001400200094b79f0099
:10113000efb09700010cb20000082000808f500033
:1011400014003200000c2000808f500025003a006f
:1011500014c0b30066ac21000b0037000400fb0094
:101160004300dd00060040005001be004000be000c
:101170000040e10001c8e10002d0e10003d8e10035
:10118000170039000442e800f44f5200f3ff3a0020
:101190001300370000012000010020006011b8009a
:1011a00014c0b3000040e10001c8e10002d0e1003a
:1011b00003d8e1000a003900460020000000d000fa
:1011c0008180d2000281d2008381d2000603e9002f
:1011d000faff3a000442e800f04f5200f1ff3a00f3
:1011e000a4df9f002fde97000c00fb009fb097004c
:1011f000810f500002003d00a1df9f000400370076
:101200001fb19700800f510001003d0090b79f0073
:101210005fb297000400e000050032006fb3970052
:1012200063006300020032000402e900d4b79f00ab
:101230008582fb00a5b79f002fde97000c00fb0006
:101240008000eb00f1af9f005fb19700800f51006d
:101250000200340000005100f0af9f002fb2970051
:101260000428a300350032006fb39700e10063004b
:101270000418a3000c003200d00220000100e0009e
:1012800001003a000080e900ffb09700b3000700ba
:10129000e10f40000e0032004fb697000c06e80048
:1012a000ccb79f000a0037000100e00008003200c0
:1012b000ffb0970000022000a8000700e10f4000e7
:1012c000030032004fb097000000e800c0b79f0055
:1012d000ffa897000100e0000f0032000006eb00bd
:1012e000ffb09700000320009c000700e10f4000c2
:1012f000030032004fb197000201e800c2b79f001f
:101300000c06e8007faa9700840f5600f4ff3a000d
:101310000003eb00f6af9f001fb697004360dd00af
:10132000e1ab2100810640004260dd006406500010
:101330000000eb00b0b79f0066003700ffa89700e1
:101340000100e000120032002fb197006800610038
:101350000f003a0000067800ffb09700000220005e
:101360007e000700e10f4000030032004fb29700fb
:101370000402e800c4b79f000c06e8007fab9700aa
:10138000860f5600f4ff3a000006eb00fcaf9f000a
:101390006fb09700e10060002fb197000218a30022
:1013a0000c003200d00220000100e00001003a00f1
:1013b0000080e900ffb0970068000700e10f4000df
:1013c000d5ff32004fb297000402e800c4b79f0077
:1013d000d1ff37000100e000cfff3200ffb09700df
:1013e000000220005d000700e10f4000caff32004c
:1013f0004fb397000603e800c6b79f00c6ff37004b
:10140000efb09700010cb20000082000808f500060
:1014100010003200000c2000808f50001f003a00a6
:101420003d02be002d03be000800be000a01be0042
:1014300033fd0700a4002000050020006033b80041
:1014400036fd070004c3b30004424000a4df9f0040
:101450001200370014002000050020006033b8009f
:101460000c0078000000e900050033000402d00001
:101470008582d2000683d2008783d200f9ff37002d
:101480000800be000a01be001dfd07006f006000dd
:1014900034b9210064427800a4df9f00afd89700e0
:1014a0000100fb00ffb097002c000700e10f400097
:1014b000030032004fb197000201e800c2b79f005d
:1014c0003fb297000402e800b4b79f00e8865600d8
:1014d000640656003fb397001fb09700800f53007b
:1014e000c7ff3a00afb097000138a30010003200e8
:1014f0007fa997000200e0000d0034000006eb0019
:10150000ffb097000002200014000700e10f400028
:10151000030032004fb297000402e800c4b79f00f6
:101520000c06e8007fab9700860f5600f4ff3a00e8
:10153000be407800a1df9f000104e000e9fd3a0011
:101540004fb097004f0778004f06be004f05be0012
:101550004f04be00af01b10000000600889fbe002e
:101560000001780001047800b10090000118a30088
:101570003d0032000198a30003003a0018009000db
:101580000000e00038003a000190a000310498000b
:1015900082047800f90fb200180090000000e0000b
:1015a00002003a0028009000000c7800ea8f5400f6
:1015b00006003a00380090000078a30003003a00cb
:1015c00088007800d0002000e4ff07009800900019
:1015d00058009000808f50000b0032000100e8009e
:1015e000100498001800780009587800000c780062
:1015f00011c0b30080ba210001487800ea8f54007e
:101600000600320019003700880078000940780091
:10161000190007008004780014003700380090009b
:101620000088a3001100320018019000a80090006b
:1016300048009000f1fb070098009000810f5000d7
:1016400004003200380090000003b300300498001a
:101650008084eb000000eb0010049800280090004c
:10166000000c7800010037008084eb00090078004e
:101670004f04be00000006000200fa00889fbe0072
:10168000a0ff9f0001047800b10090008104780061
:101690000904b200020032000000fb0036003700ef
:1016a0000118a30005003a000103b30031049800bb
:1016b000190498000080eb002f00370058009000bc
:1016c0000000e00006003a004800900012002000f0
:1016d000e6805700c9fb0700190498002400370072
:1016e000280090000000e00008003a0040ba210005
:1016f00020049800000c780020002000500498007e
:10170000100498000130a0003104980018019000e6
:10171000a800900048009000b8fb07002800900047
:10172000000c78000080eb0010049800180078008e
:10173000aff8970001587800000c78002ff8970058
:10174000ea4f50000a003a00380090000088a300d9
:101750000700320018019000a80090004800900097
:10176000a6fb070019049800a8009000010c78005f
:10177000aff897000100fb004f04be000080fa00a4
:04178000000006005f
:020000040000fa
:0200000401f009
:04000c00f8ff0000f9
:020000040000fa
:0200000401f009
:040010007bff000072
:020000040000fa
:0200000401f009
:04001400e4ff000005
:020000040000fa
:0200000401f009
:04001800ffff0000e6
:020000040000fa
:0200000401f009
:04001c00deff000003
:020000040000fa
:10000800c03b0000c43b0000ca3b0000f83b0000b6
:10001800fe3b0000043c0000c03b0000c03b000069
:10002800c03b0000c03b0000c03b0000543c000047
:10003800c03b0000c03b0000c03b0000c03b0000cc
:10004800c03b0000c03b0000c03b0000c03b0000bc
:10005800c03b0000c03b0000c03b0000c03b0000ac
:10006800c03b0000c03b0000c03b0000c03b00009c
:10007800c03b0000c03b0000c03b0000c03b00008c
:10008800c03b0000c03b0000c03b0000c03b00007c
:10009800c03b0000c03b00004a3900009e39000008
:1000a800c03b0000c03b0000c03b0000c03b00005c
:1000b800c03b0000c03b0000c03b0000c03b00004c
:1000c800c03b0000c03b0000c03b0000c03b00003c
:1000d800c03b0000c03b0000c03b0000c03b00002c
:1000e800c03b0000c03b0000c03b0000c03b00001c
:1000f800c03b0000c03b0000c03b0000c03b00000c
:10010800c03b0000c03b0000c03b0000c03b0000fb
:10011800c03b0000c03b0000c03b0000c03b0000eb
:10012800c03b0000c03b0000c03b0000c03b0000db
:10013800c03b0000c03b0000c03b0000c03b0000cb
:10014800c03b0000c03b0000c03b0000c03b0000bb
:10015800c03b0000c03b0000c03b0000c03b0000ab
:10016800c03b0000c03b0000c03b0000c03b00009b
:10017800c03b0000c03b0000c03b0000c03b00008b
:10018800c03b0000c03b0000c03b0000c03b00007b
:10019800c03b0000c03b0000c03b0000c03b00006b
:1001a800c03b0000c03b0000c03b0000c03b00005b
:1001b800c03b0000c03b0000c03b0000c03b00004b
:1001c800c03b0000c03b0000c03b0000c03b00003b
:1001d800c03b0000c03b0000c03b00001c3e0000cc
:1001e800c03b0000c03b0000c03b0000c03b00001b
:0801f800c03b0000c03b000009
:020000040000fa
:10020800c03b00000a3c0000103c0000163c000007
:100218001c3c0000223c0000c03b0000c03b00002a
:10022800c03b0000c03b0000c03b0000543c000045
:10023800c03b0000c03b0000c03b0000c03b0000ca
:10024800c03b0000c03b0000c03b0000c03b0000ba
:10025800c03b0000c03b0000c03b0000c03b0000aa
:10026800c03b0000c03b0000c03b0000c03b00009a
:10027800c03b0000c03b0000c03b0000c03b00008a
:10028800c03b0000c03b0000c03b0000c03b00007a
:10029800c03b0000c03b00004a3900009e39000006
:1002a800c03b0000c03b0000c03b0000c03b00005a
:1002b800c03b0000c03b0000c03b0000c03b00004a
:1002c800c03b0000c03b0000c03b0000c03b00003a
:1002d800c03b0000c03b0000c03b0000c03b00002a
:1002e800c03b0000c03b0000c03b0000c03b00001a
:1002f800c03b0000c03b0000c03b0000c03b00000a
:10030800c03b0000c03b0000c03b0000c03b0000f9
:10031800c03b0000c03b0000c03b0000c03b0000e9
:10032800c03b0000c03b0000c03b0000c03b0000d9
:10033800c03b0000c03b0000c03b0000c03b0000c9
:10034800c03b0000c03b0000c03b0000c03b0000b9
:10035800c03b0000c03b0000c03b0000c03b0000a9
:10036800c03b0000c03b0000c03b0000c03b000099
:10037800c03b0000c03b0000c03b0000c03b000089
:10038800c03b0000c03b0000c03b0000c03b000079
:10039800c03b0000c03b0000c03b0000c03b000069
:1003a800c03b0000c03b0000c03b0000c03b000059
:1003b800c03b0000c03b0000c03b0000c03b000049
:1003c800c03b0000c03b0000c03b0000c03b000039
:1003d800c03b0000c03b0000c03b00001c3e0000ca
:1003e800c03b0000c03b0000c03b0000c03b000019
:0803f800c03b0000c03b000007
:020000040000fa
:1017840000000000a805000000080000cc090000cb
:10179400500b0000a60c0000db0d0000f70e00004b
:1017a40000100000f8100000e3110000c212000055
:1017b40098130000651400002a150000e8150000c5
:1017c400a01600005217000000180000a81800001e
:1017d4004c190000ec190000881a0000211b0000bd
:1017e400b61b0000481c0000d81c0000641d00004b
:1017f400ee1d0000761e0000fb1e00007e1f000090
:10180400002000007f200000fc2000007721000061
:10181400f021000068220000df22000053230000b2
:10182400c623000038240000a92400001825000065
:1018340085250000f22500005d260000c826000072
:1018440031270000992700000028000065280000c7
:10185400ca2800002e29000091290000f329000065
:10186400542a0000b52a0000142b0000732b00003a
:10187400d12b00002e2c00008a2c0000e62c000046
:10188400412d00009b2d0000f42d00004d2e000082
:10189400a52e0000fd2e0000542f0000aa2f0000ea
:1018a4000030000055300000a9300000fd30000079
:1018b40050310000a3310000f53100004732000030
:1018c40098320000e9320000393300008933000007
:1018d400d83300002734000075340000c3340000fe
:1018e400103500005d350000aa350000f635000013
:1018f400423600008d360000d83600002237000042
:101904006c370000b637000000380000483800008b
:1019140091380000d93800002139000069390000ed
:10192400b0390000f73900003d3a0000833a000066
:10193400c93a00000f3b0000543b0000993b0000f3
:10194400dd3b0000223c0000663c0000a93c000096
:10195400ed3c0000303d0000723d0000b53d00004c
:10196400f73d0000393e00007b3e0000bc3e000015
:10197400fd3e00003e3f00007f3f0000bf3f0000ef
:10198400004000003f4000007f400000be400000d7
:10199400fe4000003c4100007b410000ba410000d1
:1019a400f84100003642000073420000b1420000da
:1019b400ee4200002b43000068430000a5430000f2
:1019c400e14300001e4400005a4400009544000016
:1019d400d14400000c450000484500008345000048
:1019e400be450000f8450000334600006d46000087
:1019f400a7460000e14600001b47000054470000d2
:101a04008d470000c7470000004800003848000028
:101a140071480000a9480000e24800001a4900008b
:101a2400524900008a490000c1490000f9490000f8
:101a3400304a0000674a00009e4a0000d54a000070
:101a44000b4b0000424b0000784b0000ae4b0000f3
:101a5400e54b00001a4c0000504c0000864c00007e
:101a6400bb4c0000f14c0000264d00005b4d000013
:101a7400904d0000c44d0000f94d00002d4e0000b3
:101a8400624e0000964e0000ca4e0000fe4e00005a
:101a9400324f0000654f0000994f0000cc4f00000a
:101aa40000500000335000006650000099500000c0
:101ab400cb500000fe500000305100006351000084
:101ac40095510000c7510000f95100002b5200004d
:101ad4005d5200008f520000c0520000f25200001c
:101ae400235300005453000085530000b6530000f4
:101af400e7530000185400004954000079540000d2
:101b0400a9540000da5400000a5500003a550000b8
:101b14006a5500009a550000ca550000fa550000a5
:101b2400295600005956000088560000b756000098
:101b3400e656000016570000455700007357000092
:101b4400a2570000d1570000005800002e58000092
:101b54005c5800008b580000b9580000e75800009a
:101b64001559000043590000715900009f590000a5
:101b7400cc590000fa590000275a0000555a0000b9
:101b8400825a0000af5a0000dc5a0000095b0000d2
:101b9400365b0000635b0000905b0000bd5b0000ef
:101ba400e95b0000165c0000425c00006f5c000012
:101bb4009b5c0000c75c0000f35c00001f5d00003c
:101bc4004b5d0000775d0000a35d0000ce5d00006a
:101bd400fa5d0000265e0000515e00007c5e00009d
:101be400a85e0000d35e0000fe5e0000295f0000d6
:101bf400545f00007f5f0000aa5f0000d55f000013
:101c0400006000002a600000556000007f60000052
:101c1400aa600000d4600000fe600000286100009b
:101c2400526100007d610000a7610000d0610000e6
:101c3400fa610000246200004e6200007762000036
:101c4400a1620000ca620000f46200001d6300008b
:101c5400476300007063000099630000c2630000e2
:101c6400eb630000146400003d640000666400003f
:101c74008e640000b7640000e064000008650000a2
:101c8400316500005965000082650000aa65000006
:101c9400d2650000fa650000236600004b66000070
:101ca400736600009b660000c3660000ea660000dd
:101cb400126700003a67000061670000896700004e
:101cc400b1670000d86700000068000027680000c2
:101cd4004e680000756800009d680000c46800003c
:101ce400eb680000126900003969000060690000b7
:101cf40086690000ad690000d4690000fb6900003a
:101d0400216a0000486a00006e6a0000956a0000bb
:101d1400bb6a0000e26a0000086b00002e6b000042
:101d2400546b00007a6b0000a16b0000c76b0000cd
:101d3400ed6b0000126c0000386c00005e6c00005b
:101d4400846c0000aa6c0000cf6c0000f56c0000ed
:101d54001a6d0000406d0000656d00008b6d000081
:101d6400b06d0000d66d0000fb6d0000206e000019
:101d7400456e00006a6e00008f6e0000b46e0000b5
:101d8400d96e0000fe6e0000236f0000486f000053
:101d94006d6f0000926f0000b66f0000db6f0000f3
:101da4000070000024700000497000006d70000095
:101db40091700000b6700000da700000fe70000040
:101dc40023710000477100006b7100008f710000e7
:101dd400b3710000d7710000fb7100001f72000096
:101de40043720000677200008a720000ae72000045
:101df400d2720000f5720000197300003d730000f8
:101e04006073000084730000a7730000ca730000ad
:101e1400ee73000011740000347400005874000064
:101e24007b7400009e740000c1740000e474000020
:101e3400077500002a7500004d75000070750000dc
:101e440093750000b6750000d8750000fb7500009e
:101e54001e7600004176000063760000867600005e
:101e6400a8760000cb760000ed7600001077000025
:101e740032770000547700007777000099770000ec
:101e8400bb770000dd7700000078000022780000b6
:101e9400447800006678000088780000aa78000082
:101ea400cc780000ee7800000f7900003179000052
:101eb400537900007579000096790000b879000024
:101ec400da790000fb7900001d7a00003e7a0000f8
:101ed400607a0000817a0000a37a0000c47a0000ce
:101ee400e57a0000077b0000287b0000497b0000a6
:101ef4006b7b00008c7b0000ad7b0000ce7b000080
:101f0400ef7b0000107c0000317c0000527c00005c
:101f1400737c0000947c0000b57c0000d57c00003c
:101f2400f67c0000177d0000387d0000587d00001d
:101f3400797d00009a7d0000ba7d0000db7d000001
:101f4400fb7d00001c7e00003c7e00005d7e0000e6
:101f54007d7e00009e7e0000be7e0000de7e0000ce
:101f6400fe7e00001f7f00003f7f00005f7f0000b7
:101f74007f7f00009f7f0000bf7f0000df7f0000a5
:101f840000000000d402000000040000e604000089
:101f9400a805000053060000ed0600007b070000c2
:101fa400000800007c080000f1080000610900003e
:101fb400cc090000320a0000950a0000f40a00006f
:101fc400500b0000a90b0000000c0000540c000092
:101fd400a60c0000f60c0000440d0000900d00005b
:101fe400db0d0000240e00006c0e0000b20e000099
:101ff400f70e00003b0f00007d0f0000bf0f000034
:10200400001000003f1000007e100000bb10000014
:10201400f8100000341100006f110000a911000035
:10202400e31100001c120000541200008c12000086
:10203400c2120000f91200002e1300006413000005
:1020440098130000cc1300000014000032140000a8
:102054006514000097140000c8140000f91400006f
:102064002a1500005a1500008a150000b915000051
:10207400e81500001716000045160000731600004e
:10208400a0160000cd160000fa1600002617000066
:10209400521700007e170000aa170000d517000091
:1020a400001800002a180000541800007e180000d0
:1020b400a8180000d1180000fa1800002319000025
:1020c4004c190000741900009c190000c419000088
:1020d400ec190000131a00003a1a0000611a0000fb
:1020e400881a0000ae1a0000d51a0000fb1a00007e
:1020f400211b0000461b00006c1b0000911b00000c
:10210400b61b0000db1b0000001c0000241c0000a8
:10211400481c00006c1c0000901c0000b41c000053
:10212400d81c0000fb1c00001e1d0000411d000007
:10213400641d0000871d0000aa1d0000cc1d0000c6
:10214400ee1d0000111e0000331e0000541e00008e
:10215400761e0000981e0000b91e0000da1e000062
:10216400fb1e00001c1f00003d1f00005e1f00003e
:102174007e1f00009f1f0000bf1f0000df1f000024
:10218400002000001f2000003f2000005f2000000e
:102194007f2000009e200000bd200000dd20000004
:1021a400fc2000001b210000392100005821000000
:1021b4007721000095210000b4210000d221000005
:1021c400f02100000f2200002d2200004a2200000e
:1021d4006822000086220000a4220000c122000020
:1021e400df220000fc220000192300003623000037
:1021f40053230000702300008d230000aa23000055
:10220400c6230000e3230000002400001c24000077
:102214003824000054240000712400008d240000a0
:10222400a9240000c5240000e0240000fc240000d0
:1022340018250000332500004f2500006a25000002
:1022440085250000a1250000bc250000d72500003d
:10225400f22500000d260000282600004326000079
:102264005d2600007826000093260000ad260000bd
:10227400c8260000e2260000fc2600001627000005
:10228400312700004b270000652700007f2700004e
:1022940099270000b2270000cc270000e6270000a1
:1022a4000028000019280000332800004c280000f2
:1022b400652800007f28000098280000b12800004d
:1022c400ca280000e3280000fc28000015290000ab
:1022d4002e29000047290000602900007929000008
:1022e40091290000aa290000c2290000db2900006e
:1022f400f32900000c2a0000242a00003c2a0000d4
:10230400542a00006d2a0000852a00009d2a00003e
:10231400b52a0000cd2a0000e52a0000fd2a0000ad
:10232400142b00002c2b0000442b00005b2b00001e
:10233400732b00008b2b0000a22b0000b92b000094
:10234400d12b0000e82b0000002c0000172c00000b
:102354002e2c0000452c00005c2c0000732c000087
:102364008a2c0000a12c0000b82c0000cf2c000007
:10237400e62c0000fd2c0000132d00002a2d000087
:10238400412d0000572d00006e2d0000842d00000b
:102394009b2d0000b12d0000c82d0000de2d000093
:1023a400f42d00000b2e0000212e0000372e00001b
:1023b4004d2e0000632e0000792e00008f2e0000a9
:1023c400a52e0000bb2e0000d12e0000e72e000039
:1023d400fd2e0000132f0000282f00003e2f0000c8
:1023e400542f0000692f00007f2f0000942f00005d
:1023f400aa2f0000bf2f0000d52f0000ea2f0000f5
:1024040000300000153000002a3000003f3000008a
:10241400553000006a3000007f3000009430000026
:10242400a9300000be300000d3300000e8300000c6
:10243400fd30000012310000273100003b31000064
:1024440050310000653100007a3100008e31000007
:10245400a3310000b8310000cc310000e1310000ac
:10246400f53100000a3200001e3200003332000051
:10247400473200005b3200007032000084320000fa
:1024840098320000ac320000c1320000d5320000a6
:10249400e9320000fd320000113300002533000052
:1024a400393300004d330000613300007533000000
:1024b400893300009d330000b0330000c4330000b2
:1024c400d8330000ec330000003400001334000063
:1024d400273400003a3400004e3400006234000017
:1024e40075340000893400009c340000b0340000ce
:1024f400c3340000d6340000ea340000fd34000088
:102504001035000024350000373500004a3500003e
:102514005d350000713500008435000097350000fa
:10252400aa350000bd350000d0350000e3350000b9
:10253400f6350000093600001c3600002f36000076
:102544004236000055360000673600007a36000037
:102554008d360000a0360000b2360000c5360000fb
:10256400d8360000eb360000fd36000010370000be
:102574002237000035370000473700005a37000083
:102584006c3700007f37000091370000a43700004b
:10259400b6370000c9370000db370000ed37000014
:1025a40000380000123800002438000036380000db
:1025b400483800005b3800006d3800007f380000a8
:1025c40091380000a3380000b5380000c738000077
:1025d400d9380000eb380000fd3800000f39000046
:1025e4002139000033390000453900005739000013
:1025f400693900007a3900008c3900009e390000e6
:10260400b0390000c2390000d3390000e5390000b8
:10261400f7390000083a00001a3a00002c3a00008a
:102624003d3a00004f3a0000603a0000723a000060
:10263400833a0000953a0000a63a0000b83a000038
:10264400c93a0000db3a0000ec3a0000fd3a000011
:102654000f3b0000203b0000313b0000433b0000e7
:10266400543b0000653b0000763b0000883b0000c3
:10267400993b0000aa3b0000bb3b0000cc3b0000a0
:10268400dd3b0000ee3b0000003c0000113c00007c
:10269400223c0000333c0000443c0000553c000058
:1026a400663c0000773c0000873c0000983c00003a
:1026b400a93c0000ba3c0000cb3c0000dc3c00001c
:1026c400ed3c0000fd3c00000e3d00001f3d0000fd
:1026d400303d0000403d0000513d0000623d0000df
:1026e400723d0000833d0000943d0000a43d0000c5
:1026f400b53d0000c63d0000d63d0000e73d0000aa
:10270400f73d0000083e0000183e0000293e00008e
:10271400393e00004a3e00005a3e00006a3e000076
:102724007b3e00008b3e00009c3e0000ac3e00005f
:10273400bc3e0000cd3e0000dd3e0000ed3e00004a
:10274400fd3e00000e3f00001e3f00002e3f000033
:102754003e3f00004f3f00005f3f00006f3f00001e
:102764007f3f00008f3f00009f3f0000af3f00000d
:10277400bf3f0000cf3f0000df3f0000ef3f0000fd
:10278400000000009201000024030000b6040000d1
:1027940047060000d90700006a090000fb0a000090
:1027a4008b0c00001b0e0000ab0f00003911000061
:1027b400c712000055140000e11500006d17000059
:1027c400f8180000821a00000b1c0000931d000082
:1027d400191f00009f20000023220000a6230000f0
:1027e40027250000a726000026280000a3290000b2
:1027f4001e2b0000982c0000102e0000862f0000d5
:10280400fb3000006d320000de3300004d35000067
:10281400b9360000243800008c390000f23a000078
:10282400563c0000b73d0000163f00007340000016
:10283400cd410000254300007a440000cc4500004f
:102844001c47000069480000b3490000fa4a000030
:102854003f4c0000804d0000bf4e0000fa4f0000c6
:1028640033510000685200009a530000c95400001c
:10287400f45500001d570000425800006359000041
:10288400815a00009c5b0000b35c0000c65d000040
:10289400d65e0000e25f0000eb600000f061000023
:1028a400f1620000ee630000e7640000dd650000f3
:1028b400ce660000bc670000a56800008b690000bc
:1028c4006c6a00004a6b0000236c0000f86c000086
:1028d400c96d0000956e00005e6f0000227000005c
:1028e400e17000009d710000547200000673000046
:1028f400b57300005e74000003750000a475000049
:1029040040760000d87600006b770000f97700006d
:10291400837800000879000089790000047a0000b7
:102924007c7a0000ee7a00005c7b0000c47b00002f
:10293400297c0000887c0000e27c0000387d0000d7
:10294400897d0000d57d00001c7e00005e7e0000b5
:102954009c7e0000d47e0000087f0000377f0000ca
:10296400617f0000867f0000a67f0000c17f000019
:10297400d77f0000e87f0000f57f0000fc7f0000a7
:10298400fe7f0000fc7f0000f57f0000e87f000070
:10299400d77f0000c17f0000a67f0000867f000073
:1029a400617f0000377f0000087f0000d47e0000b4
:1029b4009c7e00005e7e00001c7e0000d57d000031
:1029c400897d0000387d0000e27c0000887c0000e6
:1029d400297c0000c47b00005c7b0000ee7a0000d0
:1029e4007c7a0000047a00008979000008790000ec
:1029f40083780000f97700006b770000d876000038
:102a040040760000a4750000037500005e740000a9
:102a1400b573000006730000547200009d7100003d
:102a2400e1700000227000005e6f0000956e0000ef
:102a3400c96d0000f86c0000236c00004a6b0000b4
:102a44006c6a00008b690000a5680000bc67000088
:102a5400ce660000dd650000e7640000ee63000060
:102a6400f1620000f0610000eb600000e25f000032
:102a7400d65e0000c65d0000b35c00009c5b0000f5
:102a8400815a000063590000425800001d5700009d
:102a9400f4550000c95400009a5300006852000025
:102aa40033510000fa4f0000bf4e0000804d00007b
:102ab4003f4c0000fa4a0000b34900006948000096
:102ac4001c470000cc4500007a4400002543000068
:102ad400cd41000073400000163f0000b73d0000e8
:102ae400563c0000f23a00008c3900002438000003
:102af400b93600004d350000de3300006d320000b1
:102b0400fb300000862f0000102e0000982c0000df
:102b14001e2b0000a329000026280000a726000081
:102b240027250000a6230000232200009f20000088
:102b3400191f0000931d00000b1c0000821a0000e6
:102b4400f81800006d170000e1150000551400008e
:102b5400c712000039110000ab0f00001b0e00006b
:102b64008b0c0000fb0a00006a090000d907000072
:102b740047060000b6040000240300009201000090
:102b8400000000006efe0000dcfc00004afb0000b8
:102b9400b9f9000027f8000096f6000005f50000da
:102ba40075f30000e5f1000055f00000c7ee0000e9
:102bb40039ed0000abeb00001fea000093e80000d1
:102bc40008e700007ee50000f5e300006de2000088
:102bd400e7e0000061df0000dddd00005adc0000fa
:102be400d9da000059d90000dad700005dd6000018
:102bf400e2d4000068d30000f0d100007ad00000d5
:102c040005cf000093cd000022cc0000b3ca000021
:102c140047c90000dcc7000074c600000ec50000f0
:102c2400aac3000049c20000eac000008dbf000032
:102c340033be0000dbbc000086bb000034ba0000d9
:102c4400e4b8000097b700004db6000006b50000d8
:102c5400c1b3000080b2000041b1000006b0000022
:102c6400cdae000098ad000066ac000037ab0000ac
:102c74000caa0000e3a80000bea700009da6000067
:102c84007fa5000064a400004da300003aa2000048
:102c94002aa100001ea00000159f0000109e000045
:102ca4000f9d0000129c0000199b0000239a000055
:102cb40032990000449800005b970000759600006c
:102cc40094950000b6940000dd9300000893000082
:102cd400379200006b910000a2900000de8f00008c
:102ce4001f8f0000638e0000ac8d0000fa8c000082
:102cf4004b8c0000a28b0000fd8a00005c8a00005f
:102d0400c089000028890000958800000788000019
:102d14007d870000f886000077860000fc850000af
:102d24008485000012850000a48400003c84000017
:102d3400d7830000788300001e830000c88200004f
:102d4400778200002b820000e4810000a281000051
:102d5400648100002c810000f8800000c98000001c
:102d64009f8000007a8000005a8000003f800000ad
:102d740029800000188000000b80000004800000ff
:102d840002800000048000000b8000001880000016
:102d9400298000003f8000005a8000007a800000f3
:102da4009f800000c9800000f88000002c81000092
:102db40064810000a2810000e48100002b820000f5
:102dc40077820000c88200001e8300007883000020
:102dd400d78300003c840000a48400001285000016
:102de40084850000fc85000077860000f8860000da
:102df4007d8700000788000095880000288900006e
:102e0400c08900005c8a0000fd8a0000a28b0000db
:102e14004b8c0000fa8c0000ac8d0000638e000027
:102e24001f8f0000de8f0000a29000006b91000055
:102e34003792000008930000dd930000b694000070
:102e440094950000759600005b970000449800007c
:102e540032990000239a0000199b0000129c000084
:102e64000f9d0000109e0000159f00001ea0000092
:102e74002aa100003aa200004da3000064a40000af
:102e84007fa500009da60000bea70000e3a80000e7
:102e94000caa000037ab000066ac000098ad00003f
:102ea400cdae000006b0000041b1000080b20000c9
:102eb400c1b3000006b500004db6000097b700008e
:102ec400e4b8000034ba000086bb0000dbbc00009c
:102ed40033be00008dbf0000eac0000049c20000fc
:102ee400aac300000ec5000074c60000dcc70000c1
:102ef40047c90000b3ca000022cc000093cd0000f3
:102f040005cf00007ad00000f0d1000068d30000a3
:102f1400e2d400005dd60000dad7000059d90000e1
:102f2400d9da00005adc0000dddd000061df0000ba
:102f3400e7e000006de20000f5e300007ee500003c
:102f440008e7000093e800001fea0000abeb000074
:102f540039ed0000c7ee000055f00000e5f1000077
:102f640075f3000005f5000096f6000027f8000050
:102f7400b9f900004afb0000dcfc00006efe000012
:102f8400546500006d7000006572000061740000fb
:102f94007572000065000000534d0000505300009e
:102fa400205600004f55000054000000534d00000f
:102fb4005053000020490000204800002d4200002a
:102fc400524900004447000045200000504f0000d3
:102fd400530000005046000043200000565f0000ec
:102fe4004143000020470000726900006420000093
:102ff400566f00006c7400006167000065000000fb
:103004005046000043200000565f00004443000087
:10301400204c0000494e00004b00000050460000c8
:1030240043200000495f00004143000020470000a6
:103034007269000064200000437500007272000091
:10304400656e00007400000050460000432000003c
:10305400495f000054310000005000004643000066
:10306400204900005f54000032000000534d00006e
:103074005053000020490000204800002d42000069
:103084005249000044470000452000004e4500001e
:10309400470000005452000049470000340000007b
:1030a400535400005249000047340000005000000f
:1030b4004443000034000000534400004334000043
:1030c4000050000048410000534500003200000059
:1030d400534d0000505300005f4900005f4400005e
:1030e400495200005f3100005f460000424b00007f
:1030f400005300004d500000535f0000565f000075
:10310400464200004b000000534d000050530000a5
:103114005f4900005f440000495200005f32000034
:103124005f460000424b0000005000004643000090
:103134005f410000435f0000564f00004c54000004
:103144005f460000424b0000005000004643000070
:103154005f410000435f00004355000052520000ed
:10316400454e0000545f0000464200004b00000042
:1031740050460000435f0000543100005f430000ec
:1031840055520000524500004e5400005f460000b6
:10319400424b000000500000464300005f54000012
:1031a400325f00004355000052520000454e0000bb
:1031b400545f0000464200004b00000050460000ef
:1031c400435f0000444300005f4c0000494e000090
:1031d4004b5f0000464200004b00000041440000e9
:1031e400435f0000544500004d500000454200007c
:1031f4004b000000436f00006d700000696c00001c
:1032040065640000207700006974000068200000f5
:1032140043330000302000005645000052530000a4
:10322400494f00004e000000526500006c6500002c
:1032340061730000650000005665000072730000b1
:10324400696f00006e000000000000001400000020
:10325400c29700001a1a00001a1a000002000000a7
:103264007572000072000000ffff00000000000003
:103274000000000000000000050000000000000045
:103284000a00000015000000ce970000141a000088
:10329400141a0000020000007572000072000000a1
:1032a400ffff00000000000000000000000000001c
:1032b40005000000000000000a00000016000000e5
:1032c400d8970000161a0000161a00000200000029
:1032d4007572000072000000ffff00000000000093
:1032e40000000000000000000500000000000000d5
:1032f4000a00000017000000ec9700000a1a000002
:103304000a1a00000200000075720000720000003a
:10331400ffff0000000000000000000000000000ab
:1033240005000000000000000a0000001800000072
:10333400029800000c1a00000c1a000002000000a1
:103344007572000072000000ffff00000000000022
:103354000000000000000000050000000000000064
:103364000a00000019000000109800000e1a000066
:103374000e1a0000020000007572000072000000c6
:10338400ffff00000000000000000000000000003b
:1033940005000000000000000a0000001a00000000
:1033a40026980000101a0000101a00000200000005
:1033b4007572000072000000ffff000000000000b2
:1033c40000000000000000000500000000000000f4
:1033d4000a0000001b0000002f980000121a0000d1
:1033e400121a000002000000757200007200000052
:1033f400ffff0000000000000000000000000000cb
:1034040005000000000000000a0000001c0000008d
:1034140038980000181a0000181a00000200000072
:103424007572000072000000ffff00000000000041
:103434000000000000000000050000000000000083
:103444000a000000f40100004c98000092040000ff
:103454009204000002000000757200007200000077
:10346400721d0000000000000000000000000000c9
:10347400000000000000000001000000f501000051
:103484005298000096040000960400000200000018
:103494007572000072000000721d00000000000040
:1034a4000000000000000000000000000000000018
:1034b40001000000f6010000599800008604000095
:1034c4008604000002000000757200007200000013
:1034d400721d000000000000000000000000000059
:1034e400000000000000000001000000f7010000df
:1034f4005e9800008e0400008e04000002000000ac
:103504007572000072000000721d000000000000cf
:1035140000000000000000000000000000000000a7
:1035240001000000f8010000639800004804000056
:1035340048040000020000007572000072000000e0
:10354400b50e0000000000000000000000000000b4
:10355400000000000000000001000000080200005c
:103564006a980000400300004003000002000000cd
:103574007572000072000000ffff000000000000f0
:103584000000000000000000050000000000000032
:1035940001000000090200007b98000042030000c3
:1035a4004203000002000000757200007200000077
:1035b400ffff000000000000000000000000000009
:1035c4000500000000000000010000000a020000e5
:1035d4008698000044030000440300000200000039
:1035e4007572000072000000ffff00000000000080
:1035f40000000000000000000500000000000000c2
:10360400010000000b020000979800004603000030
:103614004603000002000000757200007200000002
:10362400ffff000000000000000000000000000098
:103634000500000000000000010000000c02000072
:10364400a79800004803000048030000020000009f
:103654007572000072000000ffff0000000000000f
:103664000000000000000000050000000000000051
:10367400010000000d020000ba9800004a03000097
:103684004a0300000200000075720000720000008e
:10369400ffff000000000000000000000000000028
:1036a4000500000000000000010000000e02000000
:1036b400cd9800004c0300004c0300000200000001
:1036c4007572000072000000ffff0000000000009f
:1036d40000000000000000000500000000000000e1
:1036e400010000000f020000e09800004e030000fb
:1036f4004e0300000200000075720000720000001a
:10370400ffff0000000000000000000000000000b7
:10371400050000000000000001000000100200008d
:10372400f098000056030000560300000200000059
:103734007572000072000000ffff0000000000002e
:103744000000000000000000050000000000000070
:1037540001000000e3030000fc9800001c9c000032
:103764001c9c000002000000756f00006f00000048
:10377400ffff000000000000000000000000000047
:10378400050000000000000064000000e6030000e3
:1037940016990000c41a0000c41a000002000000b8
:1037a400756e000072000000ffff000000000000c2
:1037b4000000000000000000000000000000000005
:1037c40001000000e70300001e9900001e9c000099
:1037d4001e9c000002000000756f00006f000000d6
:1037e400ffff0000000000000000000000000000d7
:1037f400050000000000000064000000000000005c
:1038040026990000000000000000000000000000f5
:10381400737200007200000000000000000000004d
:103824000000000000000000000000000100000093
:10383400010000004a010000f203000041440000be
:10384400435f0000534d0000505300005f490000e7
:10385400485f0000315f0000464200004b0000005a
:10386400e100000041440000435f0000534d0000ac
:10387400505300005f5600005f460000424b0000ba
:1038840000410000444300005f5300004d5000001d
:10389400535f0000494800005f3200005f460000ab
:1038a400424b000000410000444300005f50000010
:1038b400464300005f410000435f0000564f000094
:1038c4004c5400005f460000424b000000410000e1
:1038d400444300005f500000464300005f41000085
:1038e400435f00004355000052520000454e000063
:1038f400545f0000464200004b00000041440000b9
:10390400435f000050460000435f00005431000054
:103914005f43000055520000524500004e54000021
:103924005f460000424b0000004100004443000099
:103934005f500000464300005f540000325f000007
:103944004355000052520000454e0000545f0000f1
:10395400464200004b00000041440000435f000069
:1039640050460000435f0000444300005f4c0000e9
:10397400494e00004b5f0000464200004b0000002f
:103984004d650000732e00007531000036500000b4
:103994006663000056610000635f0000524d000042
:1039a400535f000078310000300000004d650000d6
:1039b400730000004d650000732e00007531000097
:1039c400365000006663000056640000635f000028
:1039d40078310000300000004d650000732e0000b7
:1039e4007531000036500000666300004961000034
:1039f400635f000078310000300000004d65000076
:103a0400732e00007531000036500000666300001c
:103a140049540000315f000078310000300000009c
:103a24004d650000732e0000753100003650000013
:103a34006663000049540000325f000078310000e2
:103a4400300000004d650000732e00007531000049
:103a5400365300006d700000735600006f7500004f
:103a6400745f000078310000300000004d650000f4
:103a7400732e000075310000365300006d70000095
:103a8400734900005f5000004f5300005f7800004e
:103a940031300000004d0000657300002e750000f9
:103aa40031360000536d000070730000495f000060
:103ab4004e450000475f00007831000030000000f0
:103ac400209c0000329c0000821a000009000000c3
:103ad400349c0000329c0000801a000009000000a1
:103ae400439c0000329c00007e1a00000900000084
:103af400559c0000329c00007c1a00000900000064
:103b0400699c0000329c00007a1a00000900000041
:103b1400809c0000329c0000781a0000090000001c
:103b2400979c0000329c0000761a000009000000f7
:103b3400ae9c0000329c0000741a000009000000d2
:103b4400c29c0000d89c00000a1a00000900000072
:103b5400dc9c0000d89c00000c1a00000900000046
:103b6400ee9c0000d89c00000e1a00000900000022
:103b7400009d0000d89c0000101a000009000000fd
:103b8400129d0000d89c0000121a000009000000d9
:103b9400249d0000d89c0000141a000009000000b5
:103ba400389d0000d89c0000161a0000090000008f
:103bb4004d9d0000d89c0000181a00000900000068
:103bc400d2350000523b0000883d0000c63d000095
:103bd4009a1e00009e3a0000062f0000f82f0000f5
:103be40073720000635c000073630000686500008a
:103bf400647500006c650000722e00006300000014
:103c040073720000635c0000737400006174000050
:103c1400656d000061630000686900006e65000066
:103c24002e6300000000000073720000635c00005b
:103c34006b650000726e0000656c00007469000022
:103c44006d650000722e00006300000073720000b6
:103c5400635c000073690000726500006d2e000053
:103c64006300000073720000635c0000616c00007c
:103c7400617200006d2e000063000000202500002a
:043c840073000000c9
:020000040000fa
:103c88000040eb0020fab70036fab700377aef00a9
:103c9800387aef00397aef003a7aef003b7aef0092
:103ca8003c7aef003d7aef003e7aef003f7aef0072
:103cb80080c0b3002efab70081002000e0a22100e6
:103cc800d00c3700205ae200010032000000060044
:103cd800c0a221005d0f3700000278000100e0005b
:103ce80003003a0081017800030078000000060014
:103cf8000001eb008201780062407a000080fb003e
:103d0800808141000201e800828f5000f6ff3200f6
:103d180062407a000080fb00808141000201e800d7
:103d2800828f5000f4ff3a00efff3700205ae2007c
:103d380006003a0041002000c0a221004d0f0700f4
:103d4800e14f500009003200000006000108200081
:103d5800a0a22100470f0700e14f5000faff3a00e8
:103d6800207aef00217aef0000000600290d0700f5
:103d78000004e00004003200ea4f5000090032005d
:103d8800320d07000000eb0020fab7000004e00045
:103d9800edff3200a0a221002c0f0700217aef00ce
:103da8000000060060a321001f0d070090cab300a1
:103db800365ae300f2ff3a009100200060a3210088
:103dc800c5ff070000c0ea00f1a321009140780078
:103dd8000104e100eaff3a0037dabf000080fb0087
:103de800e9ff370090d18800a1d1880000000600c3
:103df8008000eb00341ae20002003a00010078006b
:103e08000000060090d1800010407800130d0700d4
:103e180011002000e14f5000f8ff3a00343aed005d
:103e2800323aec000100780000000600f5ff370088
:103e3800889fbe008a9fbe008c1f780001a22100c7
:103e48009140780010c7b30080cf500019003200ad
:103e58000c003600e0c7b30080cf50009900320054
:103e68007340400080cf5000180032007940500065
:103e780080cf50008300320081e22900b013200077
:103e8800320e07007a40500080cf50008400320084
:103e98007140400080cf50004b0032000104e00028
:103ea800f5ff3a004f0678004f05be004f04be00ec
:103eb80000000600207aef004f0678004f05be008c
:103ec8004f04be0000000600faff370021dabf00e9
:103ed800b4003a00b2a32100124178004811dd0075
:103ee800030020003cdabf000080fb000100200036
:103ef8000201400083814800c819dd000280fd00ee
:103f0800824178000041eb003ddabf000080fb00f1
:103f1800010020000201400083814800c819dd002b
:103f28000280fd00824178000041eb003edabf00cc
:103f38000080fb0001002000020440008384480048
:103f480039dabf004800dd00a1a3210091407800c4
:103f58008180fb00010040004b0f0700c00090006b
:103f6800e28f50002a013200e48f50004e013200e7
:103f7800200090000848780090cab30036fab700cd
:103f88007840500037fab700387aef0091002000e7
:103f980060a3210050ff070000c0ea003ffab70005
:103fa800a100200060a321008eff070010c0b3000d
:103fb80021fab7004f0678004f05be004f04be0037
:103fc80000000600bbff370021dabf0070003a008e
:103fd80039dabf004800dd00a1a321009140780034
:103fe8008180fb0001004000270f0700c0009000ff
:103ff800e28f500013013200e48f50003701320085
:1040080030009000104078000081fb000300200081
:1040180090cab30036fab70080c6b30037fab700c3
:10402800387aef004818de00010020003bfab7009c
:104038004018de00010020003cfab700481add00f5
:104048004810de0000007200c818de003dfab70014
:10405800020078003efab7009100200060a321001a
:104068001dff070000c0ea003ffab700a1002000ca
:1040780060a321005bff070010c0b30021fab7005e
:10408800ccff370021dabf004b003200e14f50006f
:104098008e00320081e22900701c2000ab0d070061
:1040a80021dabf00e14f50007e00320026003900bf
:1040b800e24f5000cf00320081e229004041200049
:1040c800a20d070021dabf00e34f5000890032003b
:1040d8000a003600e54f5000bc003200b00039003d
:1040e800e64f500029013200e74f500077003200b8
:1040f80081e22900a0272000940d0700e14f50001d
:104108006800320089003600de0e070000047800df
:104118008000780080922900effe0700263ab4005c
:1041280088007800809229002eff070030c0b30075
:1041380021fab7004f0678004f05be004f04be00b5
:10414800000006005bff370090cab30036fab700dc
:104158000100780037fab700387aef00397aef00b3
:104168003a7aef003b7aef003c7aef003d7aef00b5
:104178003e7aef003ffaef00a100200060a3210083
:1041880018ff070010c0b30021fab70089ff3700f5
:10419800e14f50004d00320081e22900602d2000df
:1041a8006a0d0700e14f50004800320081e2290003
:1041b80070332000650d0700b20e070001002000d3
:1041c80066044000e0844800ad0e07000006780051
:1041d8000000e0001e003a0062014400e0814c004b
:1041e80090cab30036fab70080c7b30037fab700f1
:1041f800387aef0020c0b30039fab7003afab700ae
:104208004818de00010020003bfab7004018de0025
:10421800010020003cfab700481add004810de0013
:1042280000007200c818de003dfab70002007800ee
:104238003efab7009100200060a32100a6fe070007
:1042480040d1880000c0ea003ffab70087ff370076
:104258008005eb00aa9229001a00780070f2070086
:104268000000e80000044400e0844c008b05e800ee
:104278007c0545008b0f5600d7ff32001a007800e6
:1042880067f207000000e80000044400e0844c00e6
:104298008b05e8007c0545008b0f5600eeff3a00c1
:1042a800cdff3700d2fe07000000e000fdfe3a0017
:1042b80020c0b30021fab7004f0678004f05be00b2
:1042c8004f04be0000000600fafe3700c8fe0700d3
:1042d8000000e000f3fe3a0021fab70020fab70028
:1042e8004f0678004f05be004f04be0000000600d0
:1042f800f0fe3700befe0700800078000000e000f6
:10430800e8fe3a0040c0b30021fab70021d1880086
:104318005b0e070010d188004f0678004f05be00dd
:104328004f04be0000000600e2fe370090cab3004a
:1043380036fab700e0c7b30037fab7006640500056
:1043480038fab70060c5b30039fab70040c3b30004
:104358003afab70020c1b3003bfab700263aef009b
:104368006100200060a321005bfe070030d18800b7
:1043780000c0ea003ffab7006100200060a32100f6
:1043880098fe070010c0b30021fab7004f06780066
:104398004f05be004f04be0000000600c5fe3700f2
:1043a80021d1800010d18000808f50006300390037
:1043b80060c0b30021fab7004f0678004f05be0071
:1043c8004f04be0000000600bafe370088fe070052
:1043d8000000e000b3fe3a0040c0b30021fab70085
:1043e8004f0678004f05be004f04be0000000600cf
:1043f800b0fe370000020400000000004f067800fd
:104408004f05be004f04be0000000600a9fe37009d
:10441800200090000808780090cab30036fab70068
:104428007840500037fab700387aef009100200042
:1044380060a3210028fe070000c0ea003ffab70089
:10444800d7fe370030009000100078006101b800f6
:1044580090cab30036fab70080c6b30037fab7007f
:10446800387aef004818de00010020003bfab70058
:104478004018de00010020003cfab700481add00b1
:104488004810de0000007200c818de003dfab700d0
:10449800020078003efab7009100200060a32100d6
:1044a8000dfe0700effe3700200090000888be00d0
:1044b80090cab30036fab7007840500037fab70010
:1044c800387aef009100200060a3210002fe070067
:1044d80000c0ea003ffab700b1fe37003000900094
:1044e8001001be0090cab30036fab70080c6b30008
:1044f80037fab700387aef004818de0001002000cc
:104508003bfab7004018de00010020003cfab70073
:10451800481add004810de0000007200c818de00ee
:104528003dfab700020078003efab700910020007b
:1045380060a32100e8fd0700cafe37007c08b90027
:104548000080e80082922900600479000800780061
:10455800b3f107008004e8000800be00defd070094
:10456800263ab4000800be001efe070050c0b30083
:1045780021fab700243aec004f0678004f05be0038
:104588004f04be00000006004afe370030d180000c
:1045980036fab7004800de0037fab70021002000dd
:1045a80060a321000ffe070070c0b30021fab70016
:1045b8004f0678004f05be004f04be0000000600fd
:1045c8003cfe3700a7090700680b07002002070018
:1045d800e2060700da040700800078000000ea001d
:1045e800010070004f00de0011c0b30000c0500091
:1045f8000004a2000080fb00000006000200fa0090
:10460800889fbe0080047800014178000004e8001b
:1046180018407800a0ff9f0018409000b0ff9f004e
:10462800e38044005fb89700a80d0700804ceb00ba
:10463800080078004f04be000080fa000000060061
:104648008000e8000001eb001004e00002003a00de
:1046580002007800000006000201e8003104e000d2
:10466800fbff32000201e8003104e000faff3a00e3
:10467800f7ff37000400fa00881f7800000478006c
:104688008040eb000148780030c0b3001044980027
:104698002144980010c0b3003044980020c0b300f3
:1046a800404498005144980060c2b30060449800a8
:1046b800ee010700e6805700802878006700440074
:1046c80011487800dff8970011409800d0072800bb
:1046d800d0bf9f0069004400aff8970001487800f8
:1046e800bff89700114098004802b0000800780011
:1046f8004f0478000080fa00000006000200fa006b
:10470800889fbe00000178002044900063004000ac
:1047180090407800a1ff9f0010409000b0ff9f00dc
:10472800dfb8970060c2b300804f5400060036001f
:1047380040c8b30000597800020078004f04be005a
:104748000080fa00000006000059eb00820478009f
:104758000884fb00080178000900780036f107009a
:10476800088044004f04be000080fa0000000600e4
:10477800f5ff37000200fa00889fbe00014178006b
:104788000004e80098407800a1ff9f00984090003e
:10479800b1ff9f00dfb897000048eb008284fb0060
:1047a800090178000800780023f107000900440097
:1047b8004f04be000080fa00000006000200fa0064
:1047c800881f7800000478002041900063004000b2
:1047d80090407800c1ff9f0010409000d0ff9f00dc
:1047e8006fb897000281fb00e500440012f1070052
:1047f800005ceb00080078004f0478000080fa00a5
:10480800000006000200fa00889fbe0080047800bd
:104818000004e80018407800a0ff9f0018409000ae
:10482800b0ff9f005fb897000181fb00e380440060
:1048380001f10700804ceb00080078004f04be002f
:104848000080fa00000006000200fa00881f7800c5
:1048580000047800204190006300400090407800f8
:10486800c1ff9f0010409000d0ff9f00e50044006a
:104878006fb89700150d0700005ceb000800780082
:104888004f0478000080fa0000000600881f7800b6
:1048980000047800104078000080fb000100200030
:1048a80061005000e0805800020f2000820f500085
:1048b800e08f5800f2003e0000600100fc00370065
:1048c800ff00370002013700ed003700ec00370029
:1048d800eb003700ea003700010137000401370018
:1048e800e7003700e6003700e5003700e40037004e
:1048f800e3003700e2003700010137000401370008
:10490800df003700de003700dd003700dc0037004d
:10491800db003700da003700d9003700d80037004d
:10492800d7003700d6003700d5003700d40037004d
:10493800d3003700d2003700d1003700d00037004d
:10494800cf003700ce003700cd003700cc0037004d
:10495800cb003700ca003700c9003700c80037004d
:10496800c7003700c6003700c5003700c40037004d
:10497800c3003700c2003700c1003700c00037004d
:10498800bf003700be003700bd003700bc0037004d
:10499800bb003700ba003700b9003700b80037004d
:1049a800b7003700b6003700b5003700b40037004d
:1049b800b3003700b2003700b1003700b00037004d
:1049c800af003700ae003700ad003700ac0037004d
:1049d800ab003700aa003700a9003700a80037004d
:1049e800a7003700a6003700a5003700a40037004d
:1049f800a3003700a2003700a1003700a00037004d
:104a08009f0037009e0037009d0037009c0037004c
:104a18009b0037009a00370099003700980037004c
:104a2800970037009600370095003700940037004c
:104a3800930037009200370091003700900037004c
:104a48008f0037008e0037008d0037008c0037004c
:104a58008b0037008a00370089003700880037004c
:104a6800870037008600370085003700840037004c
:104a7800830037008200370081003700800037004c
:104a88007f0037007e0037007d0037007c0037004c
:104a98007b0037007a00370079003700780037004c
:104aa800770037007600370075003700740037004c
:104ab800730037007200370071003700700037004c
:104ac8006f0037006e0037006d0037006c0037004c
:104ad8006b0037006a00370069003700680037004c
:104ae800670037006600370065003700640037004c
:104af800630037006200370061003700600037004c
:104b08005f0037005e0037005d0037005c0037004b
:104b18005b0037005a00370059003700580037004b
:104b2800570037005600370055003700540037004b
:104b3800530037005200370051003700500037004b
:104b48004f0037004e0037004d0037004c0037004b
:104b58004b0037004a00370049003700480037004b
:104b6800470037004600370045003700440037004b
:104b7800430037004200370041003700400037004b
:104b88003f0037003e0037003d0037003c0037004b
:104b98003b0037003a00370039003700380037004b
:104ba800370037003600370035003700340037004b
:104bb8003300370032003700590037005c003700f7
:104bc8005f00370062003700650037006800370073
:104bd8006b0037002a00370029003700280037000b
:104be800270037002600370025003700240037004b
:104bf80023003700220037006500370069003700be
:104c08006d00370071003700740037001c00370052
:104c18001b0037001a00370019003700180037004a
:104c2800170037001600370015003700140037004a
:104c3800130037001200370011003700100037004a
:104c48000f003700690037006d003700710037002a
:104c58000b0037000a00370009003700080037004a
:104c6800070037000600370005003700040037004a
:104c780003003700020037006b0037006f00370071
:104c88008800780010c8b300805878000000eb0056
:104c9800888f50000400320088c050000800780057
:104ca800a5020700100020004f047800000006004d
:104cb8000800780091fe070080007800f3ff3700b5
:104cc80008007800bdfe070080007800efff37007d
:104cd80008007800dcfe070080007800ebff370052
:104ce80008007800a209070080007800e7ff370075
:104cf80008007800a901070080007800e3ff37006a
:104d0800080078009105070080007800dfff370071
:104d1800080078007208070080007800dbff370081
:104d28000800780053fe070080007800d7ff37009e
:104d3800080078003101070080007800d3ff3700b1
:104d4800080078004501070080007800cfff370091
:104d5800080078005601070080007800cbff370074
:104d6800080078006401070080007800c7ff37005a
:104d780008007800b809070080007800c3ff3700f2
:104d8800080078009e05070080007800bfff370004
:104d980011c0b3000800780076fe07008000780094
:104da800baff370021c0b3000800780071fe070081
:104db80080007800b5ff370041c0b30008007800d4
:104dc8006cfe070080007800b0ff3700080078000c
:104dd800a305070080007800acff370008007800c2
:104de800a107070080007800a8ff370011c0b300b2
:104df8000800780083fe070080007800a3ff3700d2
:104e080021c0b300080078007efe0700800078000b
:104e18009eff370011c0b30008007800f7fd0700b7
:104e28008000780099ff370041c0b300080078007f
:104e380074fe07008000780094ff370021c0b3009b
:104e480008007800edfd0700800078008fff37002c
:104e58000068ef002082200020c1880000000600c2
:104e68000068ef00000006000000060000002100b6
:104e78000000060000c8bf000028a30003003a0095
:104e88000048a800f040800010408800000006009c
:104e9800889fbe008a1f780080047800014578004a
:104ea80028c18000800f5400040036000000200054
:104eb8004f0578004f04be0000000600ebff070016
:104ec8008a80fb008180440000004400120020001a
:104ed800808f5000f5ff3e00020078004f057800f3
:104ee8004f04be0000000600f4ff37000001eb008d
:104ef80061c18000608221009140780090cf50000d
:104f080001003500120020000200780000000600b1
:104f18000001eb0061c180006082210091407800af
:104f280090cf5000010039001200200002007800e4
:104f3800000006000200fa0060c18000904078007e
:104f4800e1ff9f0010409000f0ff9f008000eb0001
:104f580030c180007fb99700800f510001003500f3
:104f680011002000010078000080fa00000006000f
:104f78000200fa0060c1800090407800e1ff9f00c5
:104f880010409000f0ff9f008000eb0030c18000cf
:104f98007fb99700800f51000100390011002000ef
:104fa800010078000080fa00000006000400fa0002
:104fb80060c18000e480570003000900b058780001
:104fc8004100b1004000b1000001eb0030c1800099
:104fd80041c180006fba9700ffba9700800f520056
:104fe800818f5a000100350012002000020078006d
:104ff8000080fa00000006000400fa0060c180008a
:10500800e480570003000900b05878004100b1005f
:105018004000b1000001eb0030c1800041c18000b8
:105028006fba9700ffba9700800f5200818f5a001d
:105038000100390012002000020078000080fa0008
:1050480000000600889fbe008a9fbe0000c8bf00ff
:105058000018a30028003200204080000000e00073
:1050680028003a00d1408000214088001848e2001a
:105078002f003a000a28ec004140800030408000b0
:10508800808f50002500310000c8bf000038a30001
:1050980019003a0000c8bf000028a3000f003a001a
:1050a80010c180000000e0000c0032000000010088
:1050b80080007800c081200022c0b300904f11000a
:1050c800480032000100e0004100320000c8bf0083
:1050d8000048a3000100320066ff070000c8bf00b7
:1050e8000028a30004003200104080000000e00007
:1050f80031003a000028a9004f05be004f04be0049
:10510800000006000000e900204088004f05be00ae
:105118004f04be0000000600faff370022c18000dd
:10512800424088000068a9000a28ef00d6ff37002f
:1051380080447800cb8020000a8120008980fb0011
:1051480061c07d000084fb004040800081804000f9
:10515800e1007d0008017800b7ee0700080078003c
:105168000828b4008944e800818120009140780033
:10517800014ce100bfff31008980fb0061c07d0068
:105188000084fb004040800081804000e1007d00f9
:1051980008017800a8ee0700080078000828b40085
:1051a8008944e8008181200091407800014ce100a9
:1051b800e2ff3900afff37000000e9001040880027
:1051c8004f05be004f04be0000000600cdff3700ab
:1051d8000088a80000c8bf000028a300c2ff3a004a
:1051e800c5ff37000100ea00010070004f00de0033
:1051f800e1001000f6ff3200b4ff370080007800ad
:1052080000c8bf000008a3000f00320000c8bf009c
:105218000018a3000c003a0020c18000404088001c
:105228000a28ef000428ef000048a9000088a90018
:105238000068a8000028a8000000eb00805878004b
:1052480001007800000006008008200080587800df
:105258000100780000000600fbff3700881f780077
:105268000004780000c8bf00810820000008a300df
:105278000400320000c8bf00210020000018a3006d
:1052880004003a00015c7800080078004f047800b8
:1052980000000600f7fe07008000eb00015c7800c4
:1052a800080078004f04780000000600f9ff370076
:1052b8000001780000c8bf00624060000080fb0069
:1052c8000000e900cf00de008100e80000c8bf0050
:1052d80083c8b3000008a30003003a00035978000c
:1052e80002007800000006000159780002007800ea
:1052f80000000600fcff37000400fa008000780078
:1053080000c8bf000008a30005003a0080c8b30029
:1053180080587800010078000080fa00000006003c
:1053280000c8bf00624060000600320070c8b300c9
:1053380080587800010078000080fa00000006001c
:10534800f7ff370080587800f1bf9f007fb89700bb
:1053580021c18000e1bf9f00cff897000148780085
:10536800dff89700114098000080e800f0bf9f0028
:105378007fb89700a180200011487800b1802000f4
:1053880091407800114098007fb897000080e800ad
:105398000080fa0000000600e1ff37000200fa0072
:1053a800889fbe00000478000068ef00208220007b
:1053b80020c18800284090001ce8b7006300440022
:1053c800801f78001040780020e8b7004f00780070
:1053d8001040900021e8b70065004400801f780065
:1053e800104078001ee8b7004f0078001040900089
:1053f8001fe8b70067004400801f7800104078005d
:105408001ae8b7004f007800104090001be8b7007a
:105418006900440090407800a1ff9f001040900070
:10542800b0ff9f005fb8970060c1880038489000bf
:105438002bf8b700484890002af8b7006d004400e0
:105448006182210003000900b05878004000b100d3
:10545800985090000100780018e8b70072024400e4
:105468000140e900e34f500011003e000104e00054
:1054780015003a00814278002238ef001c48e2000b
:105488002d003200a1822100914078000118a3006c
:1054980007003a002bd8bf00e24f50003d00320011
:1054a800e44f500036003200e14f50003f00320018
:1054b80060082000005c7800080078004f04be00f7
:1054c8000080fa0000000600668357008041eb0068
:1054d80083427800c98020000781200004007800fa
:1054e800304178008380fb0082f07c0082c2420059
:1054f800104b78001040900010439800630242005f
:10550800818040005fb8970080b07b000241e900cd
:10551800e74f5100e6ff3e008341e800818120000b
:1055280091407800011ce100ecff39002238ef00bf
:105538001c48e200d3ff3a000580fb0002418000ce
:105548000280b9008004780048fe0700808f54006c
:10555800d7ff3e0020c18000008044003040880012
:105568000008a8000000eb00005c78000800780044
:105578004f04be000080fa0000000600d2ff37008a
:10558800a07d22000104e0000e00320010c1880056
:10559800e9ff3700e07922000104e000fbff3a0050
:1055a800c07b220010c18800e3ff3700a0772200eb
:1055b8000104e000f5ff3a00c078220010c188001d
:1055c800ddff37000080220010c18800daff3700b5
:1055d800b279ef00b419a900b439a90097e0a9007d
:1055e80097c0a80000000600329b210012417800f5
:1055f8000204e0002200320083cd8000934078004e
:1056080001487800b0c2b30080cf500007003200d4
:105618000240e900b3f9b7000300e80080cd880034
:105628008000eb000100780000000600b4d9bf003c
:105638004200de00610060000004a2004200dd00bc
:10564800419b2100914078000124a10080c0700096
:1056580001007800b4f9b700b4d9bf008000eb00ae
:105668000028a300efff3a000240e900b3f9b700b1
:105678000300e80080cd88008000eb00e9ff3700d8
:10568800d3ff07001000200000000600e7ff3700e6
:105698000200fa009111800001007800561ab70044
:1056a80080007800563aef00b4d9bf000008a30084
:1056b800040032000198a300130032000080fa00b1
:1056c800000006000108a300fcff320043a52100ea
:1056d8009341780042cc80008200e800c09a210003
:1056e800808f50001200310050cc8000808f500015
:1056f800f2ff32000349780041cc88000080fa00ac
:1057080000000600efff37000f80e900b6ff070032
:105718000000e000e9ff3a00eff897000180fb0085
:10572800a01188000080fa0000000600e5ff37009d
:10573800c1982100ecff37000200fa0080017800d0
:1057480080cd88000042eb000001eb000104e0007e
:105758000f003a00014078008049ea000140e80063
:10576800b3f9b700b419a800b439a900b459a9000d
:1057780090118000f0bf9f00b0022000a0118800a7
:1057880097c0a90097e0a8000080fa000000060072
:105798003380fb0002014000f20fb2000442e8002f
:1057a80084cf5000faff3a00024078008049ea00ae
:1057b8000140e800b3f9b700b419a800b439a9004a
:1057c800b459a90090118000f0bf9f00b0022000da
:1057d800a011880097c0a90097e0a8000080fa00ef
:1057e80000000600eaff3700b6f9b70011c0b300a1
:1057f800609b2100d0ff370000417800b0c2b300a1
:10580800804f510030003200b4d9bf000038a300e7
:105818001a003a00b4d9bf000048a30003003200c0
:1058280002c0e800b2f9b700b499a900219b210091
:10583800914078000104e00031003200acd9bf008b
:105848008041410003007800acf9b7000140e9004d
:10585800b2f9b7002b00320071cd80000100e000e2
:1058680027003200c09d2100808f50002f0031009a
:105878008258780071cd8800000005000200780089
:10588800b6f9b700709b210070cd8800020078003f
:10589800acf9b700b279ef00b499a8008280fb0098
:1058a8000180ea00000cb20005003a00b499a90092
:1058b8000103b2004308de000040e800b2f9b70077
:1058c800b479a90000000500b4d9bf004300de0088
:1058d800610060000004a2004300dd00419b21003c
:1058e800914078000134a10080c070000100780068
:1058f800b4f9b700b4d9bf000038a300c2ff320022
:1059080000000500ae19e2000a0032000304e000be
:105918000300320020c8b300b3ff070010000500e1
:10592800609b2100d9fb070010000500ae39ef008d
:105938000000050030c8b300abff070010000500e9
:105948000040eb00b4f9b700b3f9b700000000005d
:10595800c098210050cc880040cc88001cff07006c
:1059680010000500889fbe0042cc8000c89a210024
:10597800c998210050cc8000820f50000e003200e0
:10598800b040780050cc8800880f500001003900e2
:1059980059cc8800b4d9bf000008a300f5ff3a002d
:1059a8000140780094ff070042cc800050cc800072
:1059b800820f5000f2ff3a004f04be0000000600bc
:020000040000fa
:1059c800bc1a00000400000000000000c41a000017
:1059d8000200000002000000cdab0000201a000009
:1059e8002000000000000000b01a000006000000bf
:1059f8000200000000000000000000009e1a0000e5
:105a08000a00000000000000c01a000004000000a6
:105a180000000000921a00000c00000002000000c4
:105a28000a00b80038020000022f010000262800f2
:105a3800a81a000008000000000000002e1800004e
:105a480002010000020000000000510000a2000056
